:10000E000000F88CF8F3F95BF9B8FA15FA67FAB94B
:10001E00FB04FB4BFB90FBCFFC10FC44FC79FCACCF
:10002E00FCDCFD09FD34FD5CFD82FDA6FDC8FDE88E
:10003E00FE06FE22FE3DFE56FE6EFE85FE9AFEAECC
:10004E00FEC1FED3FEE4FEF4FF0319021B021D02E5
:10005E0020021B041602180219021B021D021E02A8
:10006E001D0400041D021B021D0220021B041602A9
:10007E0018021902180216021402110400041902C1
:10008E001B021D0220021B041602180219021B027B
:10009E001D021E021D0400041D02190219021D027A
:1000AE001B04180419021802160400040D020F0294
:1000BE00110214020F040A020C020D020F021102A9
:1000CE0012021104000411020F02110214020F0495
:1000DE000A020C020D020C020A02080205040004B8
:1000EE000D020F02110214020F040A020C020D027D
:1000FE000F02110212021104000411020D020D0270
:10010E0011020F040C040D020C020A040004160264
:10011E001102110214020F040D020F02110212023B
:10012E001104000416021102110214020F040D0232
:10013E00140211021202110400041602110211021D
:10014E0014021B0419021B021D02180219040004DA
:10015E001E021D0219021602120211020D020A02DD
:08016E000D040F040D04FFFF56
:10044E002030170001000100010001000100000032
:10045E00010000000100010000000000000001008A
:10046E00010000000100000000000000010000007B
:10047E00000000090D3F065B4F666D7D7F6F030820
:03048E000000006B
:1003EF00EF12026C043601043903043C05043F0686
:1003FF0004420804450A04480C04360D04390F045E
:10040F003C11043F120442140445160448180436E4
:10041F001904391B043C1D043F1E044220044522CD
:10042F000448240000044B7F01227F02227F032215
:0F043F007F04227F05227F06227F07227F002273
:1004CF00EF1FAA0670011E4A600F7D02EDD3940044
:0904DF0040EE7CC7DCFE1D80F339
:0104E80022F1
:10049200AB05EF75F006A42411F8E6FC08E64C243F
:1004A200FF92A4EF75F006A42413F8E6FC08E64CCC
:1004B20024FF92A3EF75F006A42415F8E6FE08E6E1
:0D04C2004E24FF92A2740D2BF8E6F5802267
:1004E9005389F0438901C28DD28C758CFC758A665B
:0704F900D2A9D2AFC2B92263
:03000B0002038D60
:10038D00C0E0C0F0C083C082C0D075D000C000C036
:10039D0001C002C003C004C005C006C007E50B259F
:1003AD00E0240EF582E43400F583E493FC740193AC
:1003BD00FDECF58CAF058F8AE509450A4508600708
:1003CD00AA09A90A120292D007D006D005D004D0EE
:1003DD0003D002D001D000D0D0D082D083D0F0D0C5
:0203ED00E032FC
:03000300B2A52281
:100324007FE87E031204CF1204E97508FF75090003
:10033400750A03E51675F002A42458F9740035F023
:10034400FA7BFF780B7C007D007E007F0212024660
:10035400E50BB4FF04C28C80FEE50B7004C28C80F4
:100364000DD28CAF0B1203EFE4FDFC120492E50CEA
:1003740075F0F0A4FFAEF01204CF0516C28C7F0511
:090384007E001204CFD28C80AA85
:0300000002029861
:0C029800787FE4F6D8FD7581460202DF95
:10017600E709F608DFFA8046E709F208DFFA803E6B
:1001860088828C83E709F0A3DFFA8032E309F60858
:10019600DFFA8078E309F208DFFA807088828C83C0
:1001A600E309F0A3DFFA806489828A83E0A3F60874
:1001B600DFFA805889828A83E0A3F208DFFA804C4E
:1001C60080D280FA80C680D4806980F28033801025
:1001D60080A680EA809A80A880DA80E280CA80338E
:1001E60089828A83ECFAE493A3C8C582C8CCC58306
:1001F600CCF0A3C8C582C8CCC583CCDFE9DEE780D6
:100206000D89828A83E493A3F608DFF9ECFAA9F054
:10021600EDFB2289828A83ECFAE0A3C8C582C8CCAA
:10022600C583CCF0A3C8C582C8CCC583CCDFEADEC3
:10023600E880DB89828A83E493A3F208DFF980CC25
:1002460088F0EF60010E4E60C388F0ED2402B4041E
:100256000050B9F582EB2402B4040050AF232345C5
:0602660082239001C67323
:10026C00D083D082F8E4937012740193700DA3A321
:10027C0093F8740193F5828883E473740293686035
:06028C00EFA3A3A380DF35
:060292008A838982E473F7
:1002A400020324E493A3F8E493A34003F68001F249
:1002B40008DFF48029E493A3F85407240CC8C3335B
:1002C400C4540F4420C8834004F456800146F6DF2A
:1002D400E4800B010204081020408090044EE47E68
:1002E400019360BCA3FF543F30E509541FFEE4931F
:1002F400A360010ECF54C025E060A840B8E493A3E6
:10030400FAE493A3F8E493A3C8C582C8CAC583CA10
:10031400F0A3C8C582C8CAC583CADFE9DEE780BEC8
:01049100006A
:00000001FF
