:1000D60020301100010001000100010001000000B4
:1000E6000100000001000100000000000000010006
:1000F60001000000010000000000000001000000F7
:0E01060000000009083F065B4F666D7D7F6FAD
:10014D00EF1FAA0670011E4A600F7D02EDD39400C9
:09015D0040EE7CC7DCFE1D80F3BE
:010166002276
:10008F00AB05EF75F006A42411F8E6FC08E64C2446
:10009F00FF92A4EF75F006A42413F8E6FC08E64CD3
:1000AF0024FF92A3EF75F006A42415F8E6FE08E6E8
:1000BF004E24FF92A274082BF8E6F5807F017E0094
:0700CF0012014DE4F580224F
:100115007D017C00E4FF12008F7D017C007F0112D0
:10012500008F7D047C007F0212008F7D057C007F9F
:100135000412008F7D017C007F0512008F7D047CF9
:08014500007F0612008F80C844
:03000000020003F8
:0C000300787FE4F6D8FD75814002004AC9
:10000F00020115E493A3F8E493A34003F68001F2F1
:10001F0008DFF48029E493A3F85407240CC8C333F2
:10002F00C4540F4420C8834004F456800146F6DFC1
:10003F00E4800B01020408102040809000D6E47E7B
:10004F00019360BCA3FF543F30E509541FFEE493B6
:10005F00A360010ECF54C025E060A840B8E493A37D
:10006F00FAE493A3F8E493A3C8C582C8CAC583CAA8
:10007F00F0A3C8C582C8CAC583CADFE9DEE780BE60
:0101140000EA
:00000001FF
