:10008F0020301100010001000100010001000000FB
:10009F00010000000100010000000000000001004D
:1000AF00010000000100000000000000010000003E
:0E00BF0000000009083F065B4F666D7D7F6FF5
:1000CE00AB05EF75F006A42411F8E6FC08E64C2407
:1000DE00FF92A4EF75F006A42413F8E6FC08E64C94
:1000EE0024FF92A3EF75F006A42415F8E6FE08E6A9
:0D00FE004E24FF92A274082BF8E6F5802234
:0B010B007D027C007F071200CE80FE0A
:03000000020003F8
:0C000300787FE4F6D8FD75814002004AC9
:10000F0002010BE493A3F8E493A34003F68001F2FB
:10001F0008DFF48029E493A3F85407240CC8C333F2
:10002F00C4540F4420C8834004F456800146F6DFC1
:10003F00E4800B010204081020408090008FE47EC2
:10004F00019360BCA3FF543F30E509541FFEE493B6
:10005F00A360010ECF54C025E060A840B8E493A37D
:10006F00FAE493A3F8E493A3C8C582C8CAC583CAA8
:10007F00F0A3C8C582C8CAC583CADFE9DEE780BE60
:0100CD000032
:00000001FF
