:1006400020200020202D20202D20200020203A20B6
:05065000203A2020000B
:10067C00030A000000020800000710130B100C3BCB
:02068C0037062F
:0405BA007F147E002C
:1005BE00EF1FAA0670011E4A600F7D02EDD3940054
:0905CE0040EE7CC7DCFE1D80F349
:0105D7002201
:10044C00E4FB20B10E7F14FE1205BE30B1FD120587
:10045C00BA7B0120B00B1205BA30B0FD1205BA7B85
:10046C000220B20B1205BA30B2FD1205BA7B032082
:0F047C00B30B1205BA30B3FD1205BA7B04AF0300
:01048B00224E
:100613005389F0438901C28DD28C758CFC758A662F
:07062300D2A9D2AFC2B92237
:03000B0002029F4F
:10029F00C0E0C0F0C083C082C0D075D000C000C025
:0D02AF0001C002C003C004C005C006C007A6
:1002BC00758CFC758A660509E50970020508C394FE
:1002CC00F4E50894014015750800750900E50B4527
:0C02DC000C450A6007AA0BA90C1201A82F
:1002E800D007D006D005D004D003D002D001D0006A
:0B02F800D0D0D082D083D0F0D0E03214
:05000300C2B5C2B622E7
:060366008C188D19AB0795
:10036C00D2B5E4FD74017E00A805088005C333CE28
:10037C0033CED8F9FFEBF582EF558224FF92B4D23D
:10038C00B6C2B60DBD08DDE4FD74017E00A80508FB
:10039C008005C333CE33CED8F9FFE5185EFEE519E0
:1003AC005F4E24FF92B4D2B6C2B60DBD08DBC2B507
:0103BC00221E
:0203BD00AD078A
:1003BF00E4F9430501D2B5FB74017E00A803088060
:1003CF0005C333CE33CED8F9FFEDF582EF55822436
:1003DF00FF92B4C2B6D2B60BBB08DDE4FBD2B6C2F5
:1003EF00B630B40D7401A803088002C333D8FC42A1
:0B03FF00010BBB08E8C2B5C2B4AF019F
:01040A0022CF
:10066900EF75F00A84C454F0FEEF75F00A84EE25A4
:03067900F0FF226D
:03068F001203BD96
:0F069200EFC4540F75F00AA4FEEF540F2EFF2291
:10030300E4FDFC7F8E120366AF10120669EFFD7FDA
:100313008C120366AF11120669EFFD7F8812036624
:10032300AF12120669EFFD7F86120366AF13120642
:1003330069EFFD7F84120366AF14120669EFFD7F38
:1003430082120366AF15120669EFFD7F8012036602
:10035300AF16120669EFFD7F8A1203667D807F8EDA
:030363000203662C
:10040B007F8C12068F8F107F8812068F8F117F863D
:10041B001203BD1206928F127F841203BD12069235
:10042B008F137F821203BD1206928F147F801203EB
:10043B00BD1206928F157F8A1203BD1206928F167C
:01044B00228E
:10000E00E50D7018E50FB40113E50E600F7BFF7A56
:10001E000679407D017F01120597800FE510FB7A6E
:10002E0000751C027D017F011205F6E50DB4011865
:10003E00E50FB40113E50E600F7BFF7A0679407D64
:10004E00047F01120597800FE511FB7A00751C02E3
:10005E007D047F011205F6E50DB40218E50FB4011B
:10006E0013E50E600F7BFF7A0679407D077F011244
:10007E000597800FE512FB7A00751C027D077F0144
:10008E001205F6E50DB40318E50FB40113E50E6085
:10009E000F7BFF7A0679407D017F02120597800F54
:1000AE00E513FB7A00751C027D017F021205F6E551
:1000BE000DB40418E50FB40113E50E600F7BFF7A43
:1000CE000679407D047F02120597800FE514FB7AB6
:1000DE0000751C027D047F021205F6E50DB40516AF
:1000EE00E50FB40111E50E600D7BFF7A0679407DB8
:1000FE00077F02020597E515FB7A00751C027D0746
:06010E007F021205F6223B
:0D06B000E50F70047F0180027F008F0F2294
:10056A00E517B4020D050DE50D75F0068485F00D4D
:10057A008018E517B403087410250DF806800BE5FA
:0D058A0017B404067410250DF81602000EBB
:10023A001206551200031206137BFF7A0679437DD4
:10024A00017F011205977BFF7A06794C7D017F02B7
:10025A00120597120303750AFF750B06750CB01287
:10026A00044C8F17E517B40116E50E7007750E01D9
:10027A00F50D800BE50EB40106E4F50E120303E555
:10028A000E700812040B12000E80D4E50EB401CFD2
:05029A0012056A80CA94
:0606A100C2A58F80D2A764
:0806A7007F027EEFDEFEDFFCA6
:0106AF002228
:0A06BD00C2A61206A1C2A70206A7FA
:1005D800CFCDCFCECCCE1201537C007D0A12015371
:0405E800ED2430FFCF
:0A05EC00D2A61206A1C2A70206A7BC
:10062A00AE07BE0104ED148006BE0209ED243F4464
:06063A0080FF1206BD2244
:100655007F381206BD7F0C1206BD7F061206BD7FD0
:04066500010206BDCB
:0A06C700AC0312062AAF040205EC92
:060597008B188A19891A75
:10059D0012062AE4FDAB18AA19A91A8D82758300DB
:0C05AD00120114FF60061205EC0D80E93D
:0105B900221F
:0C0537007F0AEA24FFFDE434FFFC7E0094
:080543008E1D8F1E8C1F8D2000
:10054B007F017E00E4FBEBC39520E51F6480F8740C
:0E055B008098500AAC1DAD1E1201410B80E8C5
:01056900226F
:0405F6008A1A8B1BB7
:1005FA0012062AAA1CEAD39400400D120537AC1A37
:08060A00AD1B1205D81A80EDAA
:0106120022C5
:10048C0012062AC3EA64809480400B7F2B1205EC81
:10049C008A268B27800E7F2D1205ECC3E49BF52753
:1004AC00E49AF526AA25EAD39400400D120537AC40
:0904BC0026AD271205D81A80EDC7
:0104C5002214
:0404C6008A2A8B2BC8
:1004CA0012062AAA2CEAD3940040297F1012053971
:1004DA00AC2AAD2BCFCDCFCECCCE120153EF540FD9
:1004EA00FEC3940AEE5004243080022437FF12051A
:0404FA00EC1A80D1A7
:0104FE0022DB
:0404FF008A2F8B3085
:1005030012062AAA31EAD394004028EA24FFFDE424
:1005130034FFFC7F027E00120543AC2FAD30CFCDFC
:10052300CFCECCCE120153EF54012430FF1205EC91
:030533001A80D259
:0105360022A2
:030000000201AE4C
:0C01AE00787FE4F6D8FD7581310201F580
:10011400BB010CE58229F582E5833AF583E02250A0
:1001240006E92582F8E622BBFE06E92582F8E222EA
:0D013400E58229F582E5833AF583E4932204
:10014100EF8DF0A4A8F0CF8CF0A428CE8DF0A42ED2
:02015100FE228C
:10015300BC000BBE0029EF8DF084FFADF022E4CC90
:10016300F875F008EF2FFFEE33FEEC33FCEE9DEC59
:10017300984005FCEE9DFE0FD5F0E9E4CEFD22ED9F
:10018300F8F5F0EE8420D21CFEADF075F008EF2FE9
:10019300FFED33FD4007985006D5F0F222C398FDDA
:0501A3000FD5F0EA2277
:0601A8008A838982E473E2
:1001BA0002023AE493A3F8E493A34003F68001F21F
:1001CA0008DFF48029E493A3F85407240CC8C33346
:1001DA00C4540F4420C8834004F456800146F6DF15
:1001EA00E4800B010204081020408090067CE47E23
:1001FA00019360BCA3FF543F30E509541FFEE4930A
:10020A00A360010ECF54C025E060A840B8E493A3D0
:10021A00FAE493A3F8E493A3C8C582C8CAC583CAFB
:10022A00F0A3C8C582C8CAC583CADFE9DEE780BEB3
:01068E00006B
:00000001FF
