:1004930020202D20202D20200020203A20203A202B
:0204A300200037
:0904B4000712130B100C3B370674
:10042A00EF1FAA0670011E4A600F7D02EDD39400E9
:09043A0040EE7CC7DCFE1D80F3DE
:010443002296
:0504D200C2B5C2B62214
:060208008C098D0AAB0712
:10020E00D2B5E4FD74017E00A805088005C333CE87
:10021E0033CED8F9FFEBF582EF558224FF92B4D29C
:10022E00B6C2B60DBD08DDE4FD74017E00A805085A
:10023E008005C333CE33CED8F9FFE5095EFEE50A5D
:10024E005F4E24FF92B4D2B6C2B60DBD08DBC2B566
:01025E00227D
:02025F00AD07E9
:10026100E4F9430501D2B5FB74017E00A8030880BF
:1002710005C333CE33CED8F9FFEDF582EF55822495
:10028100FF92B4C2B6D2B60BBB08DDE4FBD2B6C254
:10029100B630B40D7401A803088002C333D8FC4200
:0B02A100010BBB08E8C2B5C2B4AF01FE
:0102AC00222F
:10046E00EF75F00A84C454F0FEEF75F00A84EE25A1
:03047E00F0FF226A
:0304810012025F05
:0F048400EFC4540F75F00AA4FEEF540F2EFF22A1
:1001A500E4FDFC7F8E120208AF1212046EEFFD7F94
:1001B5008C120208AF1312046EEFFD7F881202083D
:1001C500AF1412046EEFFD7F86120208AF151204FC
:1001D5006EEFFD7F84120208AF1612046EEFFD7FED
:1001E50082120208AF1712046EEFFD7F801202081B
:1001F500AF1812046EEFFD7F8A1202087D807F8E94
:03020500020208EA
:1002AD007F8C1204818F127F881204818F137F86B9
:1002BD0012025F1204848F147F8412025F12048471
:1002CD008F157F8212025F1204848F167F801202B7
:1002DD005F1204848F177F8A12025F1204848F18B5
:0102ED0022EE
:1001230012045A1204D27BFF7A0479937D017F0172
:100133001203CC7BFF7A04799C7D017F021203CCEE
:100143001201A51202ADE512FB7A00750D027D01C5
:100153007F0112040DE513FB7A00750D027D047F08
:100163000112040DE514FB7A00750D027D077F0172
:1001730012040DE515FB7A00750D027D017F021255
:10018300040DE516FB7A00750D027D047F0212044F
:100193000DE517FB7A00750D027D077F0212040D32
:0201A30080A139
:0604A500C2A58F80D2A762
:0804AB007F027EEFDEFEDFFCA4
:0104B3002226
:0A04BE00C2A61204A5C2A70204ABF7
:1003EF00CFCDCFCECCCE1200427C007D0A12004280
:0403FF00ED2430FFBA
:0A040300D2A61204A5C2A70204ABA2
:10044400AE07BE0104ED148006BE0209ED243F444C
:0604540080FF1204BE222D
:10045A007F381204BE7F0C1204BE7F061204BE7FD0
:04046A00010204BEC9
:0A04C800AC03120444AF0402040365
:0603CC008B098A0A890B6F
:1003D200120444E4FDAB09AA0AA90B8D82758300BD
:0C03E200120003FF60061204030D80E906
:0103EE0022EC
:0C0399007F0AEA24FFFDE434FFFC7E0034
:0803A5008E0E8F0F8C108D11DC
:1003AD007F017E00E4FBEBC39511E5106480F874CA
:0E03BD008098500AAC0EAD0F1200300B80E895
:0103CB00220F
:04040D008A0B8B0CBF
:10041100120444AA0DEAD39400400D120399AC0BC7
:08042100AD0C1203EF1A80ED8F
:0104290022B0
:1002EE00120444C3EA64809480400B7F2B120403F3
:1002FE008A1E8B1F800E7F2D120403C3E49BF51FF5
:10030E00E49AF51EAA1DEAD39400400D120399AC8F
:09031E001EAD1F1203EF1A80ED61
:0103270022B3
:040328008A228B2377
:10032C00120444AA24EAD3940040297F1012039BA0
:10033C00AC22AD23CFCDCFCECCCE120042EF540F9A
:10034C00FEC3940AEE5004243080022437FF1204BA
:04035C00031A80D12F
:01036000227A
:040361008A278B2834
:10036500120444AA29EAD394004028EA24FFFDE4B4
:1003750034FFFC7F027E001203A5AC27AD28CFCD4C
:10038500CFCECCCE120042EF54012430FF1204032D
:030395001A80D2F9
:010398002242
:0300000002009764
:0C009700787FE4F6D8FD7581290200DEB8
:10000300BB010CE58229F582E5833AF583E02250B2
:1000130006E92582F8E622BBFE06E92582F8E222FC
:0D002300E58229F582E5833AF583E4932216
:10003000EF8DF0A4A8F0CF8CF0A428CE8DF0A42EE4
:02004000FE229E
:10004200BC000BBE0029EF8DF084FFADF022E4CCA2
:10005200F875F008EF2FFFEE33FEEC33FCEE9DEC6B
:10006200984005FCEE9DFE0FD5F0E9E4CEFD22EDB1
:10007200F8F5F0EE8420D21CFEADF075F008EF2FFB
:10008200FFED33FD4007985006D5F0F222C398FDEC
:050092000FD5F0EA2289
:1000A300020123E493A3F8E493A34003F68001F24F
:1000B30008DFF48029E493A3F85407240CC8C3335E
:1000C300C4540F4420C8834004F456800146F6DF2D
:1000D300E4800B01020408102040809004B4E47E05
:1000E300019360BCA3FF543F30E509541FFEE49322
:1000F300A360010ECF54C025E060A840B8E493A3E9
:10010300FAE493A3F8E493A3C8C582C8CAC583CA13
:10011300F0A3C8C582C8CAC583CADFE9DEE780BECB
:0104BD00003E
:00000001FF
