:10049B0050617373776F72643A004F4B2000455273
:0604AB0052002020200099
:0A04FF000125000223000001220085
:10000300E4F5087590FFC2932097137F14FE120442
:10001300813097FD7F147E001204817508012096BC
:10002300147F147E001204813096FD7F147E00122B
:1000330004817508052095147F147E001204813015
:1000430095FD7F147E001204817508092094147FA6
:10005300147E001204813094FD7F147E001204810B
:1000630075080D7590FFC2922097147F147E0012BD
:1000730004813097FD7F147E0012048175080220ED
:1000830096147F147E001204813096FD7F147E0047
:100093001204817508062095147F147E00120481D2
:1000A3003095FD7F147E0012048175080A20941494
:1000B3007F147E001204813094FD7F147E001204AD
:1000C3008175080E7590FFC2912097147F147E00EE
:1000D3001204813097FD7F147E001204817508039A
:1000E3002096147F147E001204813096FD7F147EC7
:1000F300001204817508072095147F147E001204F2
:10010300813095FD7F147E0012048175080B2094C5
:10011300147F147E001204813094FD7F147E00123C
:10012300048175080F7590FFC2902097147F147E89
:10013300001204813097FD7F147E0012048175083C
:10014300042096147F147E001204813096FD7F14E0
:100153007E001204817508082095147F147E001216
:1001630004813095FD7F147E0012048175080C20F4
:1001730094147F147E001204813094FD7F147E005A
:08018300120481750810AF0899
:01018B002251
:1004C700E4F523F524F522750C04AB24AA237D015A
:0504D7007F0202046435
:10018C001204DC7BFF7A04799B7D017F011204232E
:10019C001200038F25E52560F7E525640B7024E537
:1001AC0024B4D20DE523B404087BFF7A0479A5802E
:1001BC00067BFF7A0479A97D0E7F011204231204B9
:1001CC00C78015E525B40C101204C77BFF7A04799F
:1001DC00AD7D0E7F01120423E52560B4D3940A5043
:1001EC00AFE522640460A9AE23AF247C007D0A1223
:1001FC0002528E238F24E52575F00A84E5F0252420
:10020C00F524E43523F5230522750C04AB24FA7D83
:09021C00017F0212046402019C3E
:10048100EF1FAA0670011E4A600F7D02EDD3940092
:0904910040EE7CC7DCFE1D80F387
:01049A00223F
:0604F000C2A58F80D2A717
:0804F6007F027EEFDEFEDFFC59
:0104FE0022DB
:0A050A00C2A61204F0C2A70204F614
:10044600CFCDCFCECCCE1202647C007D0A120264E0
:04045600ED2430FF62
:0A045A00D2A61204F0C2A70204F6B5
:1004B100AE07BE0104ED148006BE0209ED243F44DF
:0604C10080FF12050A2273
:1004DC007F3812050A7F0C12050A7F0612050A7F67
:0404EC000102050AFA
:0A051400AC031204B1AF0402045A54
:060423008B088A09890A1A
:100429001204B1E4FDAB08AA09A90A8D82758300FB
:0C043900120225FF600612045A0D80E933
:010445002294
:0C03F0007F0AEA24FFFDE434FFFC7E00DD
:0803FC008E0D8F0E8C0F8D1089
:100404007F017E00E4FBEBC39510E50F6480F87474
:0E0414008098500AAC0DAD0E1202520B80E81B
:0104220022B7
:040464008A0A8B0B6A
:100468001204B1AA0CEAD39400400D1203F0AC0AAE
:08047800AD0B1204461A80EDE1
:010480002259
:100345001204B1C3EA64809480400B7F2B12045AD7
:100355008A168B17800E7F2D12045AC3E49BF5175E
:10036500E49AF516AA15EAD39400400D1203F0ACF1
:0903750016AD171204461A80EDC2
:01037E00225C
:04037F008A1A8B1B30
:100383001204B1AA1CEAD3940040297F101203F28D
:10039300AC1AAD1BCFCDCFCECCCE120264EF540F2F
:1003A300FEC3940AEE5004243080022437FF120463
:0403B3005A1A80D181
:0103B7002223
:0403B8008A1F8B20ED
:1003BC001204B1AA21EAD394004028EA24FFFDE4F8
:1003CC0034FFFC7F027E001203FCAC1FAD20CFCDAE
:1003DC00CFCECCCE120264EF54012430FF12045A5B
:0303EC001A80D2A2
:0103EF0022EB
:030000000202B940
:0C02B900787FE4F6D8FD75812502030073
:10022500BB010CE58229F582E5833AF583E022508E
:1002350006E92582F8E622BBFE06E92582F8E222D8
:0D024500E58229F582E5833AF583E49322F2
:10025200EF8DF0A4A8F0CF8CF0A428CE8DF0A42EC0
:02026200FE227A
:10026400BC000BBE0029EF8DF084FFADF022E4CC7E
:10027400F875F008EF2FFFEE33FEEC33FCEE9DEC47
:10028400984005FCEE9DFE0FD5F0E9E4CEFD22ED8D
:10029400F8F5F0EE8420D21CFEADF075F008EF2FD7
:1002A400FFED33FD4007985006D5F0F222C398FDC8
:0502B4000FD5F0EA2265
:1002C50002018CE493A3F8E493A34003F68001F2C2
:1002D50008DFF48029E493A3F85407240CC8C3333A
:1002E500C4540F4420C8834004F456800146F6DF09
:1002F500E4800B01020408102040809004FFE47E96
:10030500019360BCA3FF543F30E509541FFEE493FD
:10031500A360010ECF54C025E060A840B8E493A3C4
:10032500FAE493A3F8E493A3C8C582C8CAC583CAEF
:10033500F0A3C8C582C8CAC583CADFE9DEE780BEA7
:0105090000F1
:00000001FF
