:0A04170050617373776F72643A004E
:10000300E4F50C7590FFC2932097137F14FE12033F
:10001300B83097FD7F147E001203B8750C0120964B
:10002300147F147E001203B83096FD7F147E0012F5
:1000330003B8750C052095147F147E001203B830A5
:1000430095FD7F147E001203B8750C092094147F6C
:10005300147E001203B83094FD7F147E001203B89F
:10006300750C0D7590FFC2922097147F147E0012B9
:1000730003B83097FD7F147E001203B8750C02207D
:1000830096147F147E001203B83096FD7F147E0011
:100093001203B8750C062095147F147E001203B862
:1000A3003095FD7F147E001203B8750C0A2094145A
:1000B3007F147E001203B83094FD7F147E00120378
:1000C300B8750C0E7590FFC2912097147F147E00B3
:1000D3001203B83097FD7F147E001203B8750C032A
:1000E3002096147F147E001203B83096FD7F147E91
:1000F300001203B8750C072095147F147E001203B9
:10010300B83095FD7F147E001203B8750C0B209454
:10011300147F147E001203B83094FD7F147E001206
:1001230003B8750C0F7590FFC2902097147F147E4F
:10013300001203B83097FD7F147E001203B8750CCC
:10014300042096147F147E001203B83096FD7F14AA
:100153007E001203B8750C082095147F147E0012DC
:1001630003B83095FD7F147E001203B8750C0C2084
:1001730094147F147E001203B83094FD7F147E0024
:080183001203B8750C10AF0C5B
:01018B002251
:10022000E4F509F50AF50B1203E87BFF7A04791768
:100230007D017F0112035A1200038F08E50860F761
:10024000D3940A50F2E50B640460ECAE09AF0A7C6B
:10025000007D0A1201B98E098F0AE50875F00A843B
:10026000E5F0250AF50AE43509F509050B751004D2
:0C027000AB0AFA7D017F0212039B80BBE9
:1003B800EF1FAA0670011E4A600F7D02EDD394005C
:0903C80040EE7CC7DCFE1D80F351
:0103D1002209
:0603FC00C2A58F80D2A70C
:080402007F027EEFDEFEDFFC4D
:01040A0022CF
:0A042100C2A61203FCC2A7020402E7
:10037D00CFCDCFCECCCE1201CB7C007D0A1201CBDE
:04038D00ED2430FF2C
:0A039100D2A61203FCC2A702040268
:1003D200AE07BE0104ED148006BE0209ED243F44BF
:0603E20080FF120421223D
:1003E8007F381204217F0C1204217F061204217F1A
:0403F80001020421D9
:0A042B00AC031203D2AF04020391E8
:06035A008B0C8A0D890ED8
:100360001203D2E4FDAB0CAA0DA90E8D8275830099
:0C03700012018CFF60061203910D80E961
:01037C00225E
:0C0327007F0AEA24FFFDE434FFFC7E00A6
:080333008E118F128C138D1442
:10033B007F017E00E4FBEBC39514E5136480F87436
:0E034B008098500AAC11AD121201B90B80E877
:010359002281
:04039B008A0E8B0F2C
:10039F001203D2AA10EAD39400400D120327AC0E19
:0803AF00AD0F12037D1A80ED71
:0103B7002223
:10027C001203D2C3EA64809480400B7F2B1203914B
:10028C008A1A8B1B800E7F2D120391C3E49BF51BE6
:10029C00E49AF51AAA19EAD39400400D120327AC7C
:0902AC001AAD1B12037D1A80ED4E
:0102B5002226
:0402B6008A1E8B1FF2
:1002BA001203D2AA20EAD3940040297F10120329FC
:1002CA00AC1EAD1FCFCDCFCECCCE1201CBEF540F8B
:1002DA00FEC3940AEE5004243080022437FF12032E
:0402EA00911A80D114
:0102EE0022ED
:0402EF008A238B24AF
:1002F3001203D2AA25EAD394004028EA24FFFDE49E
:1003030034FFFC7F027E00120333AC23AD24CFCD38
:10031300CFCECCCE1201CBEF54012430FF12039188
:030323001A80D26B
:0103260022B4
:0300000002040BEC
:0C040B00787FE4F6D8FD75812502022000
:10018C00BB010CE58229F582E5833AF583E0225028
:10019C0006E92582F8E622BBFE06E92582F8E22272
:0D01AC00E58229F582E5833AF583E493228C
:1001B900EF8DF0A4A8F0CF8CF0A428CE8DF0A42E5A
:0201C900FE2214
:1001CB00BC000BBE0029EF8DF084FFADF022E4CC18
:1001DB00F875F008EF2FFFEE33FEEC33FCEE9DECE1
:1001EB00984005FCEE9DFE0FD5F0E9E4CEFD22ED27
:1001FB00F8F5F0EE8420D21CFEADF075F008EF2F71
:10020B00FFED33FD4007985006D5F0F222C398FD61
:05021B000FD5F0EA22FE
:00000001FF
