:0E03A100436C6F636B3A0020203A20203A0034
:0903AF000315000000021100001A
:100351005389F0438901C28DD28C758CFC758A66F4
:07036100D2A9D2AFC2B922FC
:03000B00020134BB
:10013400C0E0C0F0C083C082C0D075D000C000C091
:0D01440001C002C003C004C005C006C00712
:10015100758CFC758A660512E51270020511C3944F
:10016100E8E51194034015751100751200E5164577
:0C0171001745156007AA16A9171200A276
:10017D00D007D006D005D004D003D002D001D000D6
:0B018D00D0D0D082D083D0F0D0E03280
:1002CE000513E513D3943C401BE4F5130518E5180C
:1002DE00D3943C400FE4F5180514E514D39418405C
:0502EE0003E4F51422F9
:1001980012037E1203517515FF7516027517CE7B73
:1001A800FF7A0379A17D017F011202F37BFF7A03B5
:1001B80079A87D017F021202F3E514FB7A00750C21
:1001C800027D017F02120334E518FB7A00750C02E8
:1001D8007D047F02120334E513FB7A00750C027D5F
:0801E800077F0212033480D1ED
:06039200C2A58F80D2A776
:080398007F027EEFDEFEDFFCB8
:0103A000223A
:0A03B900C2A6120392C2A702039825
:10031600CFCDCFCECCCE12004D7C007D0A12004D43
:04032600ED2430FF93
:0A032A00D2A6120392C2A7020398A4
:10036800AE07BE0104ED148006BE0209ED243F4429
:0603780080FF1203B92210
:10037E007F381203B97F0C1203B97F061203B97FBF
:04038E00010203B9AC
:0A03C300AC03120368AF0402032A22
:0602F3008B088A09890A4C
:1002F900120368E4FDAB08AA09A90A8D8275830077
:0C03090012000EFF600612032A0D80E9AE
:0103150022C5
:0C029B007F0AEA24FFFDE434FFFC7E0033
:0802A7008E0D8F0E8C0F8D10DF
:1002AF007F017E00E4FBEBC39510E50F6480F874CB
:0E02BF008098500AAC0DAD0E12003B0B80E88B
:0102CD00220E
:040334008A0A8B0B9B
:10033800120368AA0CEAD39400400D12029BAC0A7F
:08034800AD0B1203161A80ED43
:01035000228A
:1001F000120368C3EA64809480400B7F2B12032AA9
:100200008A1E8B1F800E7F2D12032AC3E49BF51FCD
:10021000E49AF51EAA1DEAD39400400D12029BAC8D
:090220001EAD1F1203161A80ED39
:0102290022B2
:04022A008A228B2376
:10022E00120368AA24EAD3940040297F1012029D7B
:10023E00AC22AD23CFCDCFCECCCE12004DEF540F8E
:10024E00FEC3940AEE5004243080022437FF1203BA
:04025E002A1A80D107
:010262002279
:040263008A278B2833
:10026700120368AA29EAD394004028EA24FFFDE490
:1002770034FFFC7F027E001202A7AC27AD28CFCD4A
:10028700CFCECCCE12004DEF54012430FF12032AFB
:030297001A80D2F8
:01029A002241
:030000000200A853
:0C00A800787FE4F6D8FD7581290200EF96
:10000E00BB010CE58229F582E5833AF583E02250A7
:10001E0006E92582F8E622BBFE06E92582F8E222F1
:0D002E00E58229F582E5833AF583E493220B
:10003B00EF8DF0A4A8F0CF8CF0A428CE8DF0A42ED9
:02004B00FE2293
:10004D00BC000BBE0029EF8DF084FFADF022E4CC97
:10005D00F875F008EF2FFFEE33FEEC33FCEE9DEC60
:10006D00984005FCEE9DFE0FD5F0E9E4CEFD22EDA6
:10007D00F8F5F0EE8420D21CFEADF075F008EF2FF0
:10008D00FFED33FD4007985006D5F0F222C398FDE1
:05009D000FD5F0EA227E
:0600A2008A838982E473E9
:1000B400020198E493A3F8E493A34003F68001F2C9
:1000C40008DFF48029E493A3F85407240CC8C3334D
:1000D400C4540F4420C8834004F456800146F6DF1C
:1000E400E4800B01020408102040809003AFE47EFA
:1000F400019360BCA3FF543F30E509541FFEE49311
:10010400A360010ECF54C025E060A840B8E493A3D7
:10011400FAE493A3F8E493A3C8C582C8CAC583CA02
:10012400F0A3C8C582C8CAC583CADFE9DEE780BEBA
:0103B8000044
:00000001FF
