:1000030000000000000000003844444438007C0035
:100013001C147C00007C2018207C00182C34100059
:100023001C101C100C0018242418000C10001905B7
:100033001E0000101000002E683E282E00027C00D7
:100043007E007E005204207A2E342000000000003F
:02008A00AD07C0
:10008C00E4FB74807E00A803088006CEA2E713CEA2
:10009C0013D8F8FFEDF582EF558224FF92B4D2B657
:0A00AC00C2B60BBB08DCD2B5C2B52A
:0100B6002227
:1000D900EF1FAA0670011E4A600F7D02EDD394003E
:0900E90040EE7CC7DCFE1D80F333
:0100F20022EB
:1000B700AA07AF0512008AAF027480A8070880025A
:1000C700C313D8FCF4F5807F017E001200D9758038
:0200D700FF2206
:0500FF00C2B6C2B522EB
:10005300E4F508F5091200FFE4F9AF01E50829907A
:10006300000393FD7C001200B709B908ED0509E50B
:1000730009D3941440E2E4F5090508E508D394484C
:0700830040D6E4F50880D12E
:030000000200F308
:0C00F300787FE4F6D8FD75810902005307
:00000001FF
